{
  "address": "0xaB84b0b239118149462E4dDe03a9ecbC78E60eEf",
  "abi": [
    {
      "inputs": [
        {
          "internalType": "address",
          "name": "multisig",
          "type": "address"
        },
        {
          "internalType": "contract IERC20",
          "name": "_astoTokenAddress",
          "type": "address"
        },
        {
          "internalType": "contract IERC20",
          "name": "_lpTokenAddress",
          "type": "address"
        }
      ],
      "stateMutability": "nonpayable",
      "type": "constructor"
    },
    {
      "anonymous": false,
      "inputs": [
        {
          "indexed": true,
          "internalType": "address",
          "name": "previousOwner",
          "type": "address"
        },
        {
          "indexed": true,
          "internalType": "address",
          "name": "newOwner",
          "type": "address"
        }
      ],
      "name": "OwnershipTransferred",
      "type": "event"
    },
    {
      "anonymous": false,
      "inputs": [
        {
          "indexed": false,
          "internalType": "address",
          "name": "account",
          "type": "address"
        }
      ],
      "name": "Paused",
      "type": "event"
    },
    {
      "anonymous": false,
      "inputs": [
        {
          "indexed": false,
          "internalType": "address",
          "name": "account",
          "type": "address"
        }
      ],
      "name": "Unpaused",
      "type": "event"
    },
    {
      "inputs": [],
      "name": "DAYS_PER_WEEK",
      "outputs": [
        {
          "internalType": "uint256",
          "name": "",
          "type": "uint256"
        }
      ],
      "stateMutability": "view",
      "type": "function"
    },
    {
      "inputs": [],
      "name": "DURATION_SECONDS",
      "outputs": [
        {
          "internalType": "uint256",
          "name": "",
          "type": "uint256"
        }
      ],
      "stateMutability": "view",
      "type": "function"
    },
    {
      "inputs": [],
      "name": "DURATION_WEEKS",
      "outputs": [
        {
          "internalType": "uint256",
          "name": "",
          "type": "uint256"
        }
      ],
      "stateMutability": "view",
      "type": "function"
    },
    {
      "inputs": [],
      "name": "HOURS_PER_DAY",
      "outputs": [
        {
          "internalType": "uint256",
          "name": "",
          "type": "uint256"
        }
      ],
      "stateMutability": "view",
      "type": "function"
    },
    {
      "inputs": [],
      "name": "MINUTES_PER_HOUR",
      "outputs": [
        {
          "internalType": "uint256",
          "name": "",
          "type": "uint256"
        }
      ],
      "stateMutability": "view",
      "type": "function"
    },
    {
      "inputs": [],
      "name": "SECONDS_PER_DAY",
      "outputs": [
        {
          "internalType": "uint256",
          "name": "",
          "type": "uint256"
        }
      ],
      "stateMutability": "view",
      "type": "function"
    },
    {
      "inputs": [],
      "name": "SECONDS_PER_HOUR",
      "outputs": [
        {
          "internalType": "uint256",
          "name": "",
          "type": "uint256"
        }
      ],
      "stateMutability": "view",
      "type": "function"
    },
    {
      "inputs": [],
      "name": "SECONDS_PER_MINUTE",
      "outputs": [
        {
          "internalType": "uint256",
          "name": "",
          "type": "uint256"
        }
      ],
      "stateMutability": "view",
      "type": "function"
    },
    {
      "inputs": [],
      "name": "SECONDS_PER_WEEK",
      "outputs": [
        {
          "internalType": "uint256",
          "name": "",
          "type": "uint256"
        }
      ],
      "stateMutability": "view",
      "type": "function"
    },
    {
      "inputs": [],
      "name": "astoClaimed",
      "outputs": [
        {
          "internalType": "uint256",
          "name": "",
          "type": "uint256"
        }
      ],
      "stateMutability": "view",
      "type": "function"
    },
    {
      "inputs": [],
      "name": "astoTokenAddress",
      "outputs": [
        {
          "internalType": "contract IERC20",
          "name": "",
          "type": "address"
        }
      ],
      "stateMutability": "view",
      "type": "function"
    },
    {
      "inputs": [
        {
          "internalType": "uint256",
          "name": "",
          "type": "uint256"
        }
      ],
      "name": "claimed",
      "outputs": [
        {
          "internalType": "bool",
          "name": "",
          "type": "bool"
        }
      ],
      "stateMutability": "view",
      "type": "function"
    },
    {
      "inputs": [],
      "name": "lpTokenAddress",
      "outputs": [
        {
          "internalType": "contract IERC20",
          "name": "",
          "type": "address"
        }
      ],
      "stateMutability": "view",
      "type": "function"
    },
    {
      "inputs": [],
      "name": "owner",
      "outputs": [
        {
          "internalType": "address",
          "name": "",
          "type": "address"
        }
      ],
      "stateMutability": "view",
      "type": "function"
    },
    {
      "inputs": [],
      "name": "paused",
      "outputs": [
        {
          "internalType": "bool",
          "name": "",
          "type": "bool"
        }
      ],
      "stateMutability": "view",
      "type": "function"
    },
    {
      "inputs": [],
      "name": "renounceOwnership",
      "outputs": [],
      "stateMutability": "nonpayable",
      "type": "function"
    },
    {
      "inputs": [
        {
          "internalType": "uint256",
          "name": "newStartTime",
          "type": "uint256"
        }
      ],
      "name": "setStartTime",
      "outputs": [],
      "stateMutability": "nonpayable",
      "type": "function"
    },
    {
      "inputs": [
        {
          "internalType": "uint256",
          "name": "",
          "type": "uint256"
        }
      ],
      "name": "staked",
      "outputs": [
        {
          "internalType": "bool",
          "name": "",
          "type": "bool"
        }
      ],
      "stateMutability": "view",
      "type": "function"
    },
    {
      "inputs": [],
      "name": "startTime",
      "outputs": [
        {
          "internalType": "uint256",
          "name": "",
          "type": "uint256"
        }
      ],
      "stateMutability": "view",
      "type": "function"
    },
    {
      "inputs": [
        {
          "internalType": "address",
          "name": "newOwner",
          "type": "address"
        }
      ],
      "name": "transferOwnership",
      "outputs": [],
      "stateMutability": "nonpayable",
      "type": "function"
    },
    {
      "inputs": [
        {
          "internalType": "address",
          "name": "recipient",
          "type": "address"
        },
        {
          "internalType": "uint256",
          "name": "amount",
          "type": "uint256"
        }
      ],
      "name": "withdrawASTOTokens",
      "outputs": [],
      "stateMutability": "nonpayable",
      "type": "function"
    },
    {
      "inputs": [
        {
          "internalType": "address",
          "name": "recipient",
          "type": "address"
        },
        {
          "internalType": "uint256",
          "name": "amount",
          "type": "uint256"
        }
      ],
      "name": "withdrawLpTokens",
      "outputs": [],
      "stateMutability": "nonpayable",
      "type": "function"
    }
  ],
  "transactionHash": "0x78e9bca39d8dd6af0f5a8bb33efc1231ac104133b3907317df6337ef38d2bba0",
  "args": [
    "0xb91019BcE3bE61eb5d6c3Ae7f6298ff82B6C8167",
    "0xb5c8a0389aaac2def49f1746448499737ff57385",
    "0xabd4487c5bff63f5d980b6a9f0b88ad28cef5085"
  ],
  "numDeployments": 1,
  "solcInputHash": "40bbec2bcf78336f244c946c6c08c7cc",
  "bytecode": "0x60c06040526000805460ff60a81b191690553480156200001e57600080fd5b5060405162000d7c38038062000d7c833981016040819052620000419162000288565b6000805460ff19169055620000563362000194565b6001600160a01b038316620000b25760405162461bcd60e51b815260206004820152601860248201527f696e76616c6964206d756c74697369672061646472657373000000000000000060448201526064015b60405180910390fd5b6001600160a01b0382166200010a5760405162461bcd60e51b815260206004820152601460248201527f696e76616c6964204153544f20616464726573730000000000000000000000006044820152606401620000a9565b6001600160a01b038116620001575760405162461bcd60e51b8152602060048201526012602482015271696e76616c6964204c50206164647265737360701b6044820152606401620000a9565b6001600160601b0319606083811b821660805282901b1660a052600060015562000180620001ed565b6200018b8362000194565b505050620002f5565b600080546001600160a01b03838116610100818102610100600160a81b0319851617855560405193049190911692909183917f8be0079c531659141344cd1fd0a4f28419497f9722a3daafe3b4186f6b6457e091a35050565b60005460ff1615620002355760405162461bcd60e51b815260206004820152601060248201526f14185d5cd8589b194e881c185d5cd95960821b6044820152606401620000a9565b6000805460ff191660011790557f62e78cea01bee320cd4e420270b5ea74000d11b0c9f74754ebdbfc544b05a2586200026b3390565b6040516001600160a01b03909116815260200160405180910390a1565b6000806000606084860312156200029e57600080fd5b8351620002ab81620002dc565b6020850151909350620002be81620002dc565b6040850151909250620002d181620002dc565b809150509250925092565b6001600160a01b0381168114620002f257600080fd5b50565b60805160601c60a05160601c610a316200034b600039600081816102ab015281816103b1015281816104a6015261054f015260008181610195015281816106b7015281816107ac01526108550152610a316000f3fe608060405234801561001057600080fd5b50600436106101425760003560e01c806378e97925116100b85780638da5cb5b1161007c5780638da5cb5b1461025a578063dbe7e3bd14610270578063e955643014610162578063f2fde38b14610293578063f5ae497a146102a6578063feda88dd146102cd57600080fd5b806378e97925146102245780637c81d6701461022d578063838a3e3d1461023557806384ae2a74146102485780638c2ee01b1461025257600080fd5b8063578751ee1161010a578063578751ee146101905780635c975abb146101cf5780635e1bef32146101e65780636ae4532014610209578063715018a61461021257806374f0314f1461021a57600080fd5b806309994db81461014757806322e1d1fb146101625780633e0a322d1461016a5780634df861261461017f5780635403f97b14610188575b600080fd5b61014f6102e0565b6040519081526020015b60405180910390f35b61014f603c81565b61017d610178366004610967565b6102f1565b005b61014f610e1081565b61014f602881565b6101b77f000000000000000000000000000000000000000000000000000000000000000081565b6040516001600160a01b039091168152602001610159565b60005460ff165b6040519015158152602001610159565b6101d66101f4366004610967565b60026020526000908152604090205460ff1681565b61014f60015481565b61017d61032d565b61014f6201518081565b61014f60045481565b61014f600781565b61017d61024336600461091b565b610369565b61014f62093a8081565b61014f601881565b60005461010090046001600160a01b03166101b7565b6101d661027e366004610967565b60036020526000908152604090205460ff1681565b61017d6102a13660046108f9565b6105d1565b6101b77f000000000000000000000000000000000000000000000000000000000000000081565b61017d6102db36600461091b565b61066f565b6102ee62093a8060286109ce565b81565b6000546001600160a01b0361010090910416331461032a5760405162461bcd60e51b815260040161032190610999565b60405180910390fd5b50565b6000546001600160a01b0361010090910416331461035d5760405162461bcd60e51b815260040161032190610999565b6103676000610884565b565b6000546001600160a01b036101009091041633146103995760405162461bcd60e51b815260040161032190610999565b6040516370a0823160e01b81523060048201526001907f00000000000000000000000000000000000000000000000000000000000000006001600160a01b0316906370a082319060240160206040518083038186803b1580156103fb57600080fd5b505afa15801561040f573d6000803e3d6000fd5b505050506040513d601f19601f820116820180604052508101906104339190610980565b116104805760405162461bcd60e51b815260206004820152601d60248201527f496e73756666696369656e74204c5020746f6b656e2062616c616e63650000006044820152606401610321565b60405163095ea7b360e01b81526001600160a01b038381166004830152602482018390527f0000000000000000000000000000000000000000000000000000000000000000169063095ea7b390604401602060405180830381600087803b1580156104ea57600080fd5b505af11580156104fe573d6000803e3d6000fd5b505050506040513d601f19601f820116820180604052508101906105229190610945565b506040516323b872dd60e01b81523060048201526001600160a01b038381166024830152604482018390527f000000000000000000000000000000000000000000000000000000000000000016906323b872dd906064015b602060405180830381600087803b15801561059457600080fd5b505af11580156105a8573d6000803e3d6000fd5b505050506040513d601f19601f820116820180604052508101906105cc9190610945565b505050565b6000546001600160a01b036101009091041633146106015760405162461bcd60e51b815260040161032190610999565b6001600160a01b0381166106665760405162461bcd60e51b815260206004820152602660248201527f4f776e61626c653a206e6577206f776e657220697320746865207a65726f206160448201526564647265737360d01b6064820152608401610321565b61032a81610884565b6000546001600160a01b0361010090910416331461069f5760405162461bcd60e51b815260040161032190610999565b6040516370a0823160e01b81523060048201526001907f00000000000000000000000000000000000000000000000000000000000000006001600160a01b0316906370a082319060240160206040518083038186803b15801561070157600080fd5b505afa158015610715573d6000803e3d6000fd5b505050506040513d601f19601f820116820180604052508101906107399190610980565b116107865760405162461bcd60e51b815260206004820152601d60248201527f496e73756666696369656e74204c5020746f6b656e2062616c616e63650000006044820152606401610321565b60405163095ea7b360e01b81526001600160a01b038381166004830152602482018390527f0000000000000000000000000000000000000000000000000000000000000000169063095ea7b390604401602060405180830381600087803b1580156107f057600080fd5b505af1158015610804573d6000803e3d6000fd5b505050506040513d601f19601f820116820180604052508101906108289190610945565b506040516323b872dd60e01b81523060048201526001600160a01b038381166024830152604482018390527f000000000000000000000000000000000000000000000000000000000000000016906323b872dd9060640161057a565b600080546001600160a01b03838116610100818102610100600160a81b0319851617855560405193049190911692909183917f8be0079c531659141344cd1fd0a4f28419497f9722a3daafe3b4186f6b6457e091a35050565b80356001600160a01b03811681146108f457600080fd5b919050565b60006020828403121561090b57600080fd5b610914826108dd565b9392505050565b6000806040838503121561092e57600080fd5b610937836108dd565b946020939093013593505050565b60006020828403121561095757600080fd5b8151801515811461091457600080fd5b60006020828403121561097957600080fd5b5035919050565b60006020828403121561099257600080fd5b5051919050565b6020808252818101527f4f776e61626c653a2063616c6c6572206973206e6f7420746865206f776e6572604082015260600190565b60008160001904831182151516156109f657634e487b7160e01b600052601160045260246000fd5b50029056fea26469706673582212204cf277d4ba57104da687dcbf12e207587d5bcdb76aceb936fbd462114488525664736f6c63430008060033",
  "devdoc": {
    "details": "ASM AIFA All-Stars claim contract",
    "kind": "dev",
    "methods": {
      "constructor": {
        "params": {
          "_astoTokenAddress": "$ASTO contract address",
          "_lpTokenAddress": "ASM All-Stars contract address",
          "multisig": "Multisig address as the contract owner"
        }
      },
      "owner()": {
        "details": "Returns the address of the current owner."
      },
      "paused()": {
        "details": "Returns true if the contract is paused, and false otherwise."
      },
      "renounceOwnership()": {
        "details": "Leaves the contract without owner. It will not be possible to call `onlyOwner` functions anymore. Can only be called by the current owner. NOTE: Renouncing ownership will leave the contract without an owner, thereby removing any functionality that is only available to the owner."
      },
      "setStartTime(uint256)": {
        "params": {
          "newStartTime": "The auction start timestamp to set"
        }
      },
      "transferOwnership(address)": {
        "details": "Transfers ownership of the contract to a new account (`newOwner`). Can only be called by the current owner."
      },
      "withdrawASTOTokens(address,uint256)": {
        "params": {
          "amount": "Token amount to withdraw"
        }
      },
      "withdrawLpTokens(address,uint256)": {
        "params": {
          "amount": "Token amount to withdraw"
        }
      }
    },
    "version": 1
  },
  "userdoc": {
    "kind": "user",
    "methods": {
      "constructor": {
        "notice": "Initialize the contract"
      },
      "setStartTime(uint256)": {
        "notice": "Set start time for staking/claimingPausing contract doesn't prolong staking/claiming period"
      },
      "withdrawASTOTokens(address,uint256)": {
        "notice": "Withdraw ASTO tokens left in the contract to multisig"
      },
      "withdrawLpTokens(address,uint256)": {
        "notice": "Withdraw LP tokens left in the contract to multisig"
      }
    },
    "version": 1
  },
  "storageLayout": {
    "storage": [
      {
        "astId": 122,
        "contract": "contracts/GenomMining.sol:GenomMining",
        "label": "_paused",
        "offset": 0,
        "slot": "0",
        "type": "t_bool"
      },
      {
        "astId": 7,
        "contract": "contracts/GenomMining.sol:GenomMining",
        "label": "_owner",
        "offset": 1,
        "slot": "0",
        "type": "t_address"
      },
      {
        "astId": 2454,
        "contract": "contracts/GenomMining.sol:GenomMining",
        "label": "isInitialized",
        "offset": 21,
        "slot": "0",
        "type": "t_bool"
      },
      {
        "astId": 2491,
        "contract": "contracts/GenomMining.sol:GenomMining",
        "label": "astoClaimed",
        "offset": 0,
        "slot": "1",
        "type": "t_uint256"
      },
      {
        "astId": 2495,
        "contract": "contracts/GenomMining.sol:GenomMining",
        "label": "staked",
        "offset": 0,
        "slot": "2",
        "type": "t_mapping(t_uint256,t_bool)"
      },
      {
        "astId": 2499,
        "contract": "contracts/GenomMining.sol:GenomMining",
        "label": "claimed",
        "offset": 0,
        "slot": "3",
        "type": "t_mapping(t_uint256,t_bool)"
      },
      {
        "astId": 2501,
        "contract": "contracts/GenomMining.sol:GenomMining",
        "label": "startTime",
        "offset": 0,
        "slot": "4",
        "type": "t_uint256"
      }
    ],
    "types": {
      "t_address": {
        "encoding": "inplace",
        "label": "address",
        "numberOfBytes": "20"
      },
      "t_bool": {
        "encoding": "inplace",
        "label": "bool",
        "numberOfBytes": "1"
      },
      "t_mapping(t_uint256,t_bool)": {
        "encoding": "mapping",
        "key": "t_uint256",
        "label": "mapping(uint256 => bool)",
        "numberOfBytes": "32",
        "value": "t_bool"
      },
      "t_uint256": {
        "encoding": "inplace",
        "label": "uint256",
        "numberOfBytes": "32"
      }
    }
  }
}